:0400000002001132B7
:03000B000200BC34
:0B006A00751655E4F517F51802000E9E
:03000E000200EB02
:20007500AE82AF835389F04389018E198F1A751B00751C00900733E4F5F0120106AC82AD78
:2000950083AEF0FFE4C39CF512E49DF51374019EF514E49FF515AA138A108A8CAC128C11E7
:2000B5008C8AD2A9D28C22C0E0C0D0C28C85108C85118AC3740A9517E495185007E4F51796
:2000D500F518800B74012517F517E43518F518D28CD0D0D0E0328516A0900064120075D210
:1100F500AFE517451870FAE516F4F5168516A080F0E3
:06004000E478FFF6D8FD94
:20001E007900E94400601B7A00900178780175A000E493F2A308B8000205A0D9F4DAF2750F
:02003E00A0FF21
:20010600AAF0FBE5828519F0A4FCADF0E5838519F0A42DFDE435F0FEE582851AF0A42DFD83
:20012600E5F03EFEE433FFEA8519F0A42EFEE5F03FFFE583851AF0A42EFEE5F03FFFE582F6
:20014600851BF0A42EFEE5F03FFFEB8519F0A42FFFEA851AF0A42FFFE583851BF0A42FFFC6
:0E016600E582851CF0A42F8EF08D838C822202
:200046007800E84400600A790175A000E4F309D8FC7800E84400600C7900900001E4F0A3B8
:04006600D8FCD9FAEF
:0D00110075811C120174E582600302000E6F
:04017400758200226E
:00000001FF
