:04000000020029329F
:03000B000201C52A
:0100130032BA
:01001B0032B2
:030023000200ECEC
:0E008200751000751755E4F518F519020026E3
:030026000201F4E0
:20009000AC82AD83AEF0FF75985053890F4389208C3D8D3E8E3F8F409000C0E4F5F01202C4
:2000B0009D85823D85833E85F03FF54090800075F0517401120238AC82C3E49CFC8C8B8C89
:2000D0008D438780D2ACD28ED29C22AF82E51070FC8FE0A2D075100185E09922C022C0E030
:2000F000C0F0C082C083C007C006C005C004C003C002C001C000C0D075D008AF99109802D0
:200110008047EFFD3395E0FEC00FC00DC00E7448C0E07409C0E07480C0E075D00012032F76
:2001300075D008E58124FBF581D00FBF0D1B744BC0E07409C0E07480C0E075D00012032F08
:2001500075D0081581158115811099028003751000D0D0D000D001D002D003D004D005D06E
:2001700006D007D083D082D0F0D0E0D02232AE82AF835389F04389018E3D8F3E753F00759D
:200190004000900733E4F5F012029DAC82AD83AEF0FFE4C39CF513E49DF51474019EF515DE
:2001B000E49FF516AA148A118A8CAC138C128C8AD2A9D28C22C0E0C0D0C28C85118C85128D
:2001D0008AC3740A9518E495195007E4F518F519800B74012518F518E43519F519D28CD0F7
:2001F000D0D0E0328517A090C20075F001E412009090006412017ED2AF7465C0E07409C007
:20021000E07480C0E0745CC0E07409C0E07480C0E0744DC0E07409C0E07480C0E012032FE3
:08023000E58124F7F58180FE51
:200948002563000A006275696C643A2025732025730D0A0031393A33333A3230004D617266
:0909680020203920323031370023
:20023800FB7A20E4FCFDFEFFE5822582F582E58333F583E5F033F5F0EB33FB4017DAE980FF
:2002580042E5822582F582E58333F583E5F033F5F0EB33FBEC33FCED33FDEE33FEEF33FF2E
:20027800EC953DED953EEE953FEF95404013EC953DFCED953EFDEE953FFEEF9540FF438250
:0502980001DABEEB22BB
:06005800E478FFF6D8FD7C
:200036007900E94400601B7A0090097C780175A000E493F2A308B8000205A0D9F4DAF275EB
:02005600A0FF09
:20029D00AAF0FBE582853DF0A4FCADF0E583853DF0A42DFDE435F0FEE582853EF0A42DFD7F
:2002BD00E5F03EFEE433FFEA853DF0A42EFEE5F03FFFE583853EF0A42EFEE5F03FFFE58216
:2002DD00853FF0A42EFEE5F03FFFEB853DF0A42FFFEA853EF0A42FFFE583853FF0A42FFF9E
:0E02FD00E5828540F0A42F8EF08D838C822246
:20005E007800E84400600A790175A000E4F309D8FC7800E84400600C7900900001E4F0A3A0
:04007E00D8FCD9FAD7
:20030B00C01B85811B1200DBD01B2285823285833385F034E4F52FF530F531851A35900305
:20032B000B020406C01B85811BE51B24FBFF8F35E4F52FF530F531E51B24FBF8863208860D
:0D034B003308863490030B120406D01B22E9
:20035800AF82C025C026C0271203658007C023C0248F8222158115811581052DE4B52D02EB
:20037800052E22AF8274302FFF24C6500A74072FFF3000034307208F82020358E582FFC4EB
:20039800540FF582C00712037BD007740F5FF58202037B85823D85283E85293F852A4085D4
:2003B8002B41AA2C754220EA2AFAE541235401FF8A064EFAE53E253EF53EE53F33F53FE560
:2003D8004033F540E54133F541C3EA953D4008EAC3953DFA433E01E54214FF8F4270C88544
:2003F8003E28853F2985402A85412B8A2C22858223858324852F25853026853127E4F52DED
:20041800F52EAD32AE33AF348D828E838FF0120928FC74012DF532E43EF5338F34ECFF70EF
:2004380003020909BF25028003020901C201C202C203C204C205C206C207C20875360075C4
:2004580037007CFFAA32AB33AE348A828B838EF0120928FFA3AA82AB838A328B338E34BF64
:2004780025078F8212035880998F3974D025395026E53924C64020BCFF12E53775F00AA45D
:20049800FD2F24D0F53770C2D20280BEEC75F00AA42F24D0FC80B3BF2E07BCFFAD7C00800B
:2004B800A98F05BD6100400CED248540075307DFD2008002C200BF2002806DBF2B028063B4
:2004D800BF2D028059BF42028063BF43028068BF44030206ABBF46030206C1BF48030204D1
:2004F80062BF49030206ABBF4A03020462BF4C028040BF4F030206B2BF5003020640BF534C
:2005180002805CBF5403020462BF55030206B7BF58030206BCBF5A030204620206C5D2018F
:20053800020462D203020462D204020462D206020462D20702046230060CE53514FE8E350E
:200558008E0187078011E53524FEFE8E358E018705098706198D078F821203580206CEE541
:200578003524FDFE8E358E01870309870509870619198B288D298E2A8B828D838EF0C00456
:20059800120910AD82AE83D004BCFF028D0420012AC3ED95375024E537C39DF537AE378E40
:2005B800031EEB6014758220C006C005C004120358D004D005D00680E68E378C0685288265
:2005D800852983852AF0120928FCFF602F8E041EC374808CF063F08095F050208F82C006E4
:2005F800C005120358D005D006AA28AB29AC2A0ABA00010B8A288B298C2A80C12001030237
:2006180006CEC3ED953740030206CEE537C39DF537AE378E041EEC70030206CC758220C012
:2006380006120358D00680EBE53524FDFC8C358C01870209870309870419198A288B298C95
:200658002AAC2ABC800040047F438014BC600040047F50800BBC400040047F4980027F5891
:200678008F82C00712035875823A120358758230120358758278120358D007BF4902800BA3
:20069800BF500280068529821203948528821203948023D20575360A801C75360880177570
:2006B800360A8012753610800DD20880098F8212035880028E3730085CE53524FCFE8E3551
:2006D8008E0187020987030987040987061919198A288B298C2A8E2B752871752909752AB9
:2006F8008085283A85293B852A3C7401253AFAE4353BFCAE3C8A288C298E2A853A82853B7F
:2007180083853CF0120928FEFF700302041A8F8212035880CCE536700302041A753848301D
:20073800062DE53514FC8C358C01E7FA3395E0FBFCFE8A288B298C2A8E2B200566AA287BCB
:20075800007C007E008A288B298C2A8E2B8054300721E53524FCFE8E358E018702098703E0
:200778000987040987061919198A288B298C2A8E2B8030E53524FEFE8E358E0187040987C0
:200798000619EE3395E0FBFA8C288E298B2A8A2B200510AA28AB297C007E008A288B298CFB
:2007B8002A8E2B300522E52B30E71BC3E49528FAE49529FBE4952AFCE4952BFE8A288B2903
:2007D8008C2A8E2B8002C205D209A9387E00752C00853682C006C0011203ABD001D0062023
:2007F800090BE52CC4FCE7FB4CF7198002A72C0EB209E5284529452A452B70D289388E05B0
:20081800E5377003753701200224200121ED04FEAC37C3EE9C5015758220C006C005C00412
:20083800120358D004D005D0061C80E68C3730050E75822DC005120358D00515378023ED25
:20085800602030030E75822BC005120358D0051537800F30040C758220C005120358D0055D
:200878001537200122AE378E041EC3ED9C502B3002047C3080027C208C82C006C0051203C7
:2008980058D005D00680E0C3ED95375008E537C39DF537800775370080028E37A9388D0673
:2008B8008E051EED6026B20920090A09E7C4540FFD8D2C80078705740F5DF52C852C82C03A
:2008D80006C00112037BD001D00680D420010302041AAE378E051EED700302041A7582203D
:1808F800C006120358D00680EB8F8212035802041A852D82852E83224A
:0B0971003C4E4F20464C4F41543E00CE
:18091000AA82AB831209286003A380F8C3E5829AF582E5839BF58322DC
:0D002900758148120944E58260030200263B
:1C09280020F71430F6148883A88220F507E6A88375830022E280F7E49322E022DE
:040944007582002296
:00000001FF
